:101355006164635F76616C75653A002C64757479B8
:051365003A000D0A0032
:101108004100100041001600C10144001C0000000D
:10111800004200220000420032000046000A00009F
:101128000000000046002C000000000000440018E9
:1011380000000000420002000042000400004200DB
:0811480006000042000800004F
:0B115100900050EBF0A3EAF0A3E9F0DF
:10115C00E4FFFE900050E0FBA3E0FAA3E0F98F82DD
:10116C008E83120383601B900050E0A3E0A3E00F7A
:10117C00EFAC0670010E14F5828C83120383F59983
:02118C0080D110
:01118E00223E
:040BDE00AB07AA06B1
:100BE20090004CE4F0A3740FF090004CE0FEA3E000
:100BF200243CF58274003EF583E4F0EBAE02781FEC
:100C0200CEC313CE13D8F9FF90004EEEF0A3EFF04F
:100C12004E600DEBF4FFEAF4FEEF2401FBE43EFA32
:100C220090004DE024FFF090004CE034FFF07C0097
:100C32007D0AAF03AE021203B0ED2430FFE0FCA345
:100C4200E0243CF58274003CF583EFF07C007D0AE1
:100C5200AF03AE021203B0AA06AB07EB4A70C19013
:100C6200004EE07002A3E0601E90004DE024FFF011
:100C720090004CE034FFF0E0FEA3E0243CF58274E7
:100C8200003EF583742DF090004CE0FEA3E0243C7E
:0A0C9200F974003EFA7B01121151C3
:010C9C002235
:0E07640090003CEEF0A3EFF0A3ECF0A3EDF05C
:10077200A312057600000000A2AF9200C2AF75C7B7
:10078200AA75C755E4F591A20092AF53B3DF43B403
:1007920020A2AF9200C2AF75C7AA75C75575910165
:1007A200A20092AF43C620A2AF9200C2AF75C7AA01
:1007B20075C755F591A20092AF53DF3F53DFF8435F
:1007C200DF0190004012057600B71B00900040E068
:1007D200FCA3E0FDA3E0FEA3E0FFC006C00790007B
:1007E2003CE0FEA3E0FFFBAA06E4F9F8D007D0063E
:1007F2001204A690004012056A900040E0FCA3E0BB
:10080200FDA3E0FEA3E024FFFFEE34FFFEED34FF84
:10081200FDEC34FFFC90004012056A900040E0FCC1
:10082200A3E0FDA3E0FEA3E0FF78081205578FD1F5
:10083200900040E0FCA3E0FDA3E0FEA3E0FFE48F14
:10084200D9900040E0FCA3E0FDA3E0FEA3E0240178
:10085200FBE43EFAE43DF9E43CF890003EE0FEA3FE
:10086200E0FFE4FCFD12041BE47B107A27F9F81286
:1008720004A690004012056AA2AF9200C2AF75C7EB
:10088200AA75C755759101A20092AF900040E0FC95
:10089200A3E0FDA3E0FEA3E0FF78081205578FC591
:1008A200900040E0FCA3E0FDA3E0FEA3E0FFE48FA4
:1008B200CDA2AF9200C2AF75C7AA75C755F591A276
:0708C2000092AFD2DED2DF8D
:0108C900220C
:10127800A2AF9200C2AF75C7AA75C755E4F591A28F
:101288000092AF53B37F53B47FA2AF9200C2AF7541
:10129800C7AA75C755F591A20092AF53ACFE43ADEE
:0212A800012221
:1008CA00A2AF9200C2AF75C7AA75C755439F01A2CE
:1008DA000092AF75AF0475A60DE4F5A7A2AF92001A
:1008EA00C2AF75C7AA75C75543A401A20092AFAD9E
:1008FA00AEED54F0900038F0ED540FFD75A60CE4FF
:10090A00F5A7A2AF9200C2AF75C7AA75C75543A48F
:10091A0001A20092AFAFAEEF75F010A47C002DFDDE
:10092A00EC35F0FCE41202C990001212056AE4FFE9
:10093A00FE7D407C40900012E0F8A3E0F9A3E0FAC3
:10094A00A3E0FB12011EE4FBFA7980784012022729
:10095A0090002812056AA2AF9200C2AF75C7AA75A5
:10096A00C755539FFEA20092AFA2AF9200C2AF75C5
:10097A00C7AA75C755E4F591A20092AF53E8F043B0
:10098A00E80853E8F843E10143E13043E20E43A2A9
:10099A0010A2AF9200C2AF75C7AA75C755F591A24A
:1009AA000092AFC2EFA2AF9200C2AF75C7AA75C7D5
:1009BA0055F591A20092AFD2EE30EFFD900011E50D
:1009CA00C3F0900017E5C2F0AFC3EF75F010A4AD05
:1009DA00C27C002DFDEC35F0FCE41202C9AB07AA7B
:1009EA0006A905A804E4FFFE7D807C451202279033
:1009FA000028E0F8A3E0F9A3E0FAA3E0FB12011E45
:060A0A0090002412056AB1
:010A100022C3
:02118F00AD07AA
:10119100E4FCFFFEECC39D502CAFC3EF75F010A42F
:1011A100ABC27A002BFFEA35F0FEA2AF9200C2AFCC
:1011B10075C7AA75C755E4F591A20092AFD2EE307A
:0811C100EFFD0C80CFE4FEFFFE
:0111C9002203
:0C0F3A00AB07AA06900038ECF0A3EDF025
:100F4600C39BEC9A503F900038E0FEA3E0FFC3EB52
:100F56009FFFEA9E900000F0A3EFF0900000E0FEF5
:100F6600A3E07802CEC313CE13D8F9F0EE900000BA
:100F7600F0E0FEA3E0FFC3EB9FFFEA9E900000F0C7
:100F8600A3EFF0803C900038E0FEA3E0FFD39BEE99
:100F96009A402EEF9BFFEE9A900000F0A3EFF090A0
:100FA6000000E0FEA3E07802CEC313CE13D8F9F01A
:100FB600EE900000F0AE02A3E02BF0900000E03EC1
:090FC600F0900000E0FEA3E0FF42
:010FCF0022FF
:1012DC00E4FDFCAD07AC061202C9900024E0F8A3B3
:1012EC00E0F9A3E0FAA3E0FB12011E7B007AF0798F
:0D12FC007F7845120227120302AC06AD07F1
:0113090022C1
:0805D40090003CEEF0A3EFF0F3
:1005DC00E4A3F0A3F0A3F0A3F0900024E0FCA3E0CC
:1005EC00FDA3E0FEA3E0FF120302900042EEF0A395
:1005FC00EFF0E4A3F0A3F0A3F0A3F0A3F0A3F0A317
:10060C007427F0A37410F0900032EEF0A3EFF0908A
:10061C000042E0FEA3E0FF7C107D001205A7C0069F
:10062C00C007900032E0FEA3E0FFFBAA06E4F9F855
:10063C00D007D0061204A690003EEEF0A3EFF09087
:10064C000044E0FEA3E0FF7C107D001205A7C0066D
:10065C00C007900032E0FEA3E0FFFBAA06E4F9F825
:10066C00D007D0061204A6900040EEF0A3EFF09055
:10067C00003CE0FCA3E0FDD39FEC9E500A900040B0
:10068C00E0FEA3E0FF8004AE04AF05900048EEF05E
:10069C00A3EFF090003EE0FCA3E0FDD39FEC9E5056
:1006AC0006AE04AF058008900048E0FEA3E0FF9082
:1006BC000048EEF0A3EFF0900040E0FCA3E0FDC397
:1006CC00EF9DFDEE9CFCE41202C9C004C005C006FF
:1006DC00C00790004AE0FCA3E0FDE41202C9D0037D
:1006EC00D002D001D00012011EC004C005C006C04B
:1006FC0007900040E0FEA3E0FFC390003FE09FFDA9
:10070C0090003EE09EFCE41202C9A804A905AA06CA
:10071C00AB07D007D006D005D004120227E4FBFAB1
:10072C007980783F12002D120302900046EEF0A360
:10073C00EFF0E4FCFD7B107A27F9F8D31205465054
:10074C00067E277F108008900046E0FEA3E0FF9015
:07075C000046EEF0A3EFF0F0
:010763002273
:100D5500E4900038F0A3F0900024E0FCA3E0FDA3AC
:100D6500E0FEA3E0FF120302900032EEF0A3EFF0E5
:100D7500E4900022F0A3F07F0412118F900038EE6A
:100D8500F0A3EFF0AFC3EF75F010A4ADC27C002D5A
:100D9500FEEC35F0900038F0A3CEF0900022E0FE96
:100DA500A3E0FFD3900039E09F900038E09E500209
:100DB5008008900038E0FEA3E0FF900038EEF0A335
:100DC500EFF0900038E0FEA3E0FFE4FCFDFB7A10B5
:100DD500F9F8D312054650067E107F008008900072
:100DE50038E0FEA3E0FF900038EEF0A3EFF09000AE
:060DF50038E0FEA3E0FF60
:010DFB0022D5
:100A1100EF24FA6048147003020A99240260030269
:100A21000AD2A2AF9200C2AF75C7AA75C755E4F545
:100A310091A20092AF53E8F043E805A2AF9200C241
:100A4100AF75C7AA75C755F591A20092AF43B11012
:100A510053B2EFF5F643F62043E1018074A2AF9261
:100A610000C2AF75C7AA75C755E4F591A20092AF50
:100A710053E8F043E806A2AF9200C2AF75C7AA756A
:100A8100C755F591A20092AF43B10853B2F7F5F6FD
:100A910043F64043E1018039A2AF9200C2AF75C76E
:100AA100AA75C755E4F591A20092AF53E8F043E867
:100AB10007A2AF9200C2AF75C7AA75C755F591A23B
:100AC1000092AF43B30253B4FDF5F643F68043E120
:100AD1000143E13043E20E53A2EFA2AF9200C2AF55
:100AE10075C7AA75C755E4F591A20092AFC2EFA2EE
:100AF100AF9200C2AF75C7AA75C755F591A2009212
:0A0B0100AFD2EE30EFFD120D5522C9
:08105E00900038EEF0A3EFF062
:10106600E4A3F0A3F0900038E0FEA3E0FF1205D45D
:1010760090003AEEF0A3EFF090003AE0FCA3E0FD1A
:101086007F807E3E1207647BFF7A137955121151D9
:10109600900038E0FEA3E0FF120BDE7BFF7A1379A7
:1010A6006012115190003AE0FEA3E0FF120BDE7BC6
:0810B600FF7A13796712115152
:0110BE00220F
:100DFC00900018E0FCA3E0FDA3E0FEA3E05410FF7C
:100E0C00E4FEFDFCEF60047F0180027F00EF7003C5
:100E1C00020E9F900018E0FCA3E0FDA3E0FEA3E00F
:100E2C0054EFFFEEEDEC90001812056AB2B07F079C
:100E3C00120A1190000EEEF0A3EFF07F06120A11C9
:100E4C0090000CEEF0A3EFF07F05120A1190000A4F
:100E5C00EEF0A3EFF090002CE0FEA3E0FF90000A70
:100E6C00E0FCA3E0FD120F3A900002EEF0A3EFF0CD
:100E7C00900002E0FEA3E0FF90002CEEF0A3EFF058
:100E8C0090000AEEF0A3EFF090000AE0FEA3E0FF62
:030E9C0012105ED3
:010E9F002230
:1011CA00900018E0FCA3E0FDA3E0FEA3E05408FFB2
:1011DA00E4FEFDFCEF60047F0180027F00EF6019EE
:1011EA00900018E0FCA3E0FDA3E0FEA3E054F7FFA3
:0A11FA00EEEDEC90001812056A22D9
:10120400900018E0FCA3E0FDA3E0FEA3E05404FF7B
:10121400E4FEFDFCEF60047F0180027F00EF6019B3
:10122400900018E0FCA3E0FDA3E0FEA3E054FBFF64
:0A123400EEEDEC90001812056A229E
:10123E00900018E0FCA3E0FDA3E0FEA3E05402FF43
:10124E00E4FEFDFCEF60047F0180027F00EF601979
:10125E00900018E0FCA3E0FDA3E0FEA3E054FDFF28
:0A126E00EEEDEC90001812056A2264
:0D136A0012123E1212041211CA120DFC22C2
:100B0B00900034E4F0A37405F0A3E4F0A37419F09F
:100B1B007B327A00900018E0FCA3E0FDA3E0FEA37B
:100B2B00E04402FFEEEDEC90001812056A90000411
:100B3B00E475F001120405FED3900035E095F090BA
:100B4B000034E09E5020900018E0FCA3E0FDA3E0F1
:100B5B00FEA3E04404FFEEEDEC90001812056AE4EE
:100B6B00900004F0A3F0900006E475F00112040568
:100B7B00FED3900037E095F0900036E09E50209029
:100B8B000018E0FCA3E0FDA3E0FEA3E04408FFEEA9
:100B9B00EDEC90001812056AE4900006F0A3F090BB
:100BAB000008E475F001120405FCC3E5F09BEC9A18
:100BBB004020900018E0FCA3E0FDA3E0FEA3E0447E
:100BCB0010FFEEEDEC90001812056AE4900008F0AF
:020BDB00A3F085
:010BDD0022F5
:03000B000210BF21
:1010BF00C0E0C0F0C083C082C0D075D000C000C0F7
:1010CF0002C003C004C005C006C007C09190001045
:1010DF00E0F58C900016E0F58AC28D120B0BD091C3
:1010EF00D007D006D005D004D003D002D000D0D086
:0910FF00D082D083D0F0D0E032A1
:1012AA00E4900038F0A3F07D707CFE5389F0438906
:1012BA0001538EF7EC900010F07470900016F090C5
:1012CA000010E0F58C900016E0F58AD2A9D2AFD2D0
:0112DA008C87
:0112DB0022F0
:0300230002130ABB
:10130A00C0E0C083C082C09130980AD20190002008
:10131A00E599F0C298309905200202C299D091D07D
:06132A0082D083D0E03206
:100C9D009000381205760001C200A2AF9200C2AFDB
:100CAD0075C7AA75C755E4F591A20092AF53B1BFB0
:100CBD0053B2BF75985043878053C4F8A2AF9200CA
:100CCD00C2AF75C7AA75C755F591A20092AF43C4BF
:100CDD0020900038E0F8A3E0F9A3E0FAA3E0FB7F51
:100CED00607EE37D167C001204A6C3E49FFFE49EA4
:100CFD00FE74019DFDE49CFC78081205578FC6908B
:100D0D000038E0F8A3E0F9A3E0FAA3E0FB7F607EF2
:100D1D00E37D167C001204A6C3E49FFFE49EFE74DF
:100D2D00019DFDE49CFCEFE48FC5A2AF9200C2AF24
:100D3D0075C7AA75C755F591A20092AF43C408D2E5
:070D4D00ACD2AFD299D20233
:010D5400227C
:100FD0009000387406F0E4F59175A638A2AF92003F
:100FE000C2AF75C7AA75C755439F01A20092AFF55E
:100FF000A775AF04A2AF9200C2AF75C7AA75C75557
:1010000043A401A20092AF85AE0805A6A2AF92004C
:10101000C2AF75C7AA75C75543A401A20092AF8598
:10102000AE09A2AF9200C2AF75C7AA75C755539F4C
:10103000FEA20092AF75C7AA75C75585088475C70B
:10104000AA75C755850985A2AF9200C2AF75C7AA18
:0D10500075C755539FFEA20092AF5387EF66
:01105D002270
:10133000120FD0A2AF9200C2AF75C7AA75C755E40D
:10134000F591A20092AFF5B1F5B2F5B3F5B4F5ACF5
:05135000F5ADD2AF2253
:10000E00121330120C9D1212781212AA1208CA1272
:05001E00136A80FB22C3
:03000000020EA04D
:100EA000787FE4F6D8FD9000007FFF7E03E4F0A396
:0A0EB000DFFCDEFA758120020EF56A
:1000260002036EE86480F8E933E83360110460F097
:10003600ED33EC337009E8FCE9FDEAFEEBFF220440
:1000460060DED3EB9FEA9EE99DE8C2E78CF0C2F73B
:1000560095F0400CE8CCF8E9CDF9EACEFAEBCFFB07
:1000660012033985D0F05804700320D5B3E8047024
:10007600075002B2D502037892D5EC0460F7E4CCBF
:10008600C0E0C398F8603B94186008400DD0E0FBD0
:10009600020350E4FBFAC9FC8028E830E406E4C910
:1000A600FBE4CAFCE830E305E4C9CACBFCE8540724
:1000B6006010F8C3E913F9EA13FAEB13FBEC13FC2F
:1000C600D8F130F52FC3E49CFCEF9BFFEE9AFEEDD2
:1000D60099FDD0E0FBEF4E4D4C701222DB0302037C
:1000E60075EC2CFCEF33FFEE33FEED33FDED30E720
:1000F600EB020350EF2BFFEE3AFEED39FDD0E0FBAD
:1001060050130BBB0003020378ED13FDEE13FEEF55
:0801160013FFEC13FC0203507F
:10011E00EC4D6011E8497017ED33EC3304600DE4DB
:10012E00FCFFFEFD22E933E8330470F802036E1281
:10013E00033958046009E4CC248150062850090282
:10014E000378284003020375C0E0EB4A7044B9807F
:10015E0006D0E0FB020364EF4E701CBD8008EBFF7F
:10016E00EAFEE9FD80EBE98DF0A4FEE5F002020760
:10017E00E9CDF9EAFEEBFFEF89F0A4FCE5F0CE89BC
:10018E00F0A42EFFE435F0CD89F0A42DFEE435F079
:10019E008067EF4E7005BD80D780C3EF8BF0A4ACA7
:1001AE00F0EE8BF0A42CFCE435F0F8EF8AF0A42CE2
:1001BE00E5F038FCE433CB8DF0A42CFCE5F03BF8F5
:1001CE00EE8AF0A42CFCE5F038F8E433CF89F0A4E5
:1001DE002CFCE5F038CF3400CE89F0A42FFFE5F0EB
:1001EE003EFEE433C98DF0A42EFEE5F039CD8AF043
:1001FE00A42FFFE5F03EFEE43DFD33D0E0FB5007BB
:10020E000BBB000F020378EC2CFCEF33FFEE33FE3A
:06021E00ED33FD02035068
:10022400020378EC5D046005E85904700302036E70
:10023400120339580460F6EC4860F2EC7004FDFED9
:10024400FF22C860DB2481C85009C39860025006AD
:100254000203759850CAF582E9294B4A7005AB82AE
:1002640002036475F0007C1A7880C3EF9BEE9AED6C
:1002740099400DC3EF9BFFEE9AFEED99FDE842F025
:10028400DC23ACF0D0E0FFD0E0FED0E0FDAB822078
:10029400E7101BEB60BAEC2CFCEF33FFEE33FEED02
:1002A40033FD020350E803F830E705C0F075F000B1
:1002B400EF2FFFEE33FEED33FD40B830E7C280AAE6
:1002C40075F020800E75F010800575F0087D007EB5
:1002D400007F003392D530D503120538EC3340103B
:1002E400EF33FFEE33FEED33FDEC33FCD5F0ED22BE
:0E02F400E5F0247EA2D513CC92E7CDCEFF22FA
:10030200EDD2E7CD33EC3392D524814006E4FFFEF3
:10031200FDFC22FCE4CFCECDCC24E0501174FF8052
:10032200EDC3CC13CCCD13CDCE13CECF13CF0470EF
:07033200F030D5DE020538B2
:10033900E9D2E7C933E833F892D5EDD2E7CD33EC0A
:0703490033FC5002B2D52283
:10035000EC30E7100FBF000C0EBE00080DBD00040E
:100360000BEB6014A2D5EB13FCED92E7FD2274FFBA
:10037000FCFDFEFF22E480F8A2D574FF13FC7D8013
:03038000E480EF27
:100EBA0002000EE493A3F8E493A34003F68001F240
:100ECA0008DFF48029E493A3F85407240CC8C33339
:100EDA00C4540F4420C8834004F456800146F6DF08
:100EEA00E4800B0102040810204080901108E47E7F
:100EFA00019360BCA3FF543F30E509541FFEE493FD
:100F0A00A360010ECF54C025E060A840B8E493A3C3
:100F1A00FAE493A3F8E493A3C8C582C8CAC583CAEE
:100F2A00F0A3C8C582C8CAC583CADFE9DEE780BEA6
:01115000009E
:10038300BB010CE58229F582E5833AF583E022502F
:1003930006E92582F8E622BBFE06E92582F8E22279
:0D03A300E58229F582E5833AF583E4932293
:1003B000BC000BBE0029EF8DF084FFADF022E4CC31
:1003C000F875F008EF2FFFEE33FEEC33FCEE9DECFA
:1003D000984005FCEE9DFE0FD5F0E9E4CEFD22ED40
:1003E000F8F5F0EE8420D21CFEADF075F008EF2F8A
:1003F000FFED33FD4007985006D5F0F222C398FD7B
:050400000FD5F0EA2217
:10040500C5F0F8A3E028F0C5F0F8E5821582700282
:060415001583E038F0221F
:10041B00E88FF0A4CC8BF0A42CFCE98EF0A42CFC80
:10042B008AF0EDA42CFCEA8EF0A4CDA8F08BF0A4FE
:10043B002DCC3825F0FDE98FF0A42CCD35F0FCEB5D
:10044B008EF0A4FEA9F0EB8FF0A4CFC5F02ECD3922
:0F045B00FEE43CFCEAA42DCE35F0FDE43CFC228F
:10046A0075F008758200EF2FFFEE33FECD33CDCC49
:10047A0033CCC58233C5829BED9AEC99E5829840CC
:10048A000CF582EE9BFEED9AFDEC99FC0FD5F0D6A9
:10049A00E4CEFBE4CDFAE4CCF9A88222B800C1B9D3
:1004AA000059BA002DEC8BF084CFCECDFCE5F0CB11
:1004BA00F97818EF2FFFEE33FEED33FDEC33FCEB4A
:1004CA0033FB10D703994004EB99FB0FD8E5E4F905
:1004DA00FA227818EF2FFFEE33FEED33FDEC33FCF2
:1004EA00C933C910D7059BE99A4007EC9BFCE99AE6
:1004FA00F90FD8E0E4C9FAE4CCFB2275F010EF2F2B
:10050A00FFEE33FEED33FDCC33CCC833C810D7072A
:10051A009BEC9AE899400AED9BFDEC9AFCE899F865
:0E052A000FD5F0DAE4CDFBE4CCFAE4C8F922F8
:0E053800C3E49FFFE49EFEE49DFDE49CFC22D4
:10054600EB9FF5F0EA9E42F0E99D42F0E89C45F00B
:010556002282
:10055700E8600FECC313FCED13FDEE13FEEF13FF82
:03056700D8F122A6
:0C056A00ECF0A3EDF0A3EEF0A3EFF02204
:10057600A8828583F0D083D08212058D12058D1254
:10058600058D12058DE473E493A3C583C5F0C58379
:10059600C8C582C8F0A3C583C5F0C583C8C582C8CF
:0105A6002232
:1005A700EC8EF0A4CCC5F0CCCDF8EFA4CEC5F02DE1
:1005B700FDE43CFCE8A42EC8C5F03DFDE43CFCEF9F
:0D05C700A4FFE5F028FEE43DFDE43CFC222D
:00000001FF
